:020000001628C0
:0E0006008312031335088A00340882000800B4
:1000140003208A110A128000840AB40A0319B50A5B
:08002400F003031D0A28080087
:10002C003F3083120313A000A1010630A200A301EC
:10003C005B30A400A5014F30A600A7016630A800D4
:10004C00A9016D30AA00AB017C30AC00AD010730CA
:10005C00AE00AF017F30B000B1016F30B200B30120
:10006C00B601B701B801B901BA01BB01BC01BD01B0
:10007C0083160317890188010130031385000130B1
:10008C008600870188018312870188013808F000F7
:10009C003908F100F00DF10D70107008203E84004D
:1000AC00000887003608F0003708F100F00DF10D5C
:1000BC0070107008203E840000088800051C7A2807
:1000CC0000303906031D6C2800303806031D7A28D1
:1000DC0000303706031D742800303606031D7A28BD
:1000EC000130BA000030BB0000303B06031D8028F5
:1000FC0001303A06031D8E28B60A0319B70A1A30C6
:10010C00FC00F830FD00FD0B8928FC0B8928000051
:10011C0000303B06031D942801303A06031DAE281F
:10012C0000303706031D9C280A303606031DAE2806
:10013C0080303906F00080307002031DA7280A3089
:10014C0038020318AE28B80A0319B90AB601B70168
:10015C0000303B06031DB42801303A06031DC828A5
:10016C0000303906031DBC2809303806031DC82889
:10017C0000303706031DC42809303606031DC82875
:10018C00BA01BB01061CDE2800303906031DD0283D
:10019C0009303806031DDE2800303706031DD82829
:1001AC0009303606031DDE280130BC000030BD00CE
:1001BC0000303D06031DE42801303C06031DF328E6
:1001CC000130B602031CB7031A30FC00F830FD00F6
:1001DC00FD0BEE28FC0BEE28000000303D06031D45
:1001EC00F92801303C06031D1629FF303706031D84
:1001FC000129FF303606031D16297F30F0008030B0
:10020C0039067002031D0C293808FF3C0318162907
:10021C000130B802031CB9030930B6000030B70036
:10022C0000303D06031D1C2901303C06031D3029FE
:10023C0000303906031D242900303806031D3029EF
:10024C0000303706031D2C2900303606031D3029DB
:08025C00BC01BD014C28312951
:04400E00F22F000786
:00000001FF
