:0200000048288E
:10000800FF00030E8301A3000A08A4008A01200848
:100018001E3A031D2D289F144230FD00FD0B1228A7
:1000280000001E088700A0014030070203181E28A0
:10003800013088000708593C031824280830880034
:100048000708403C03182D285930070203182D28AB
:100058008801A00A24088A00230E8300FF0E7F0E61
:0200680009008D
:0E006A008312031322088A0021088200080076
:1000780035208A110A128000840AA10A0319A20AEB
:08008800F003031D3C280800F1
:1000900083120313A001013083160317880089011E
:1000A00001300313850087018801831287018801CD
:1000B00083169F01C13083129F0007308316810091
:0800C0008B178B1662286328E0
:04400E00F22F000786
:00000001FF
