:02000000432893
:0E0006008312031321088A00200882000800DC
:100014003F3083120313A2000630A3005B30A40018
:100024004F30A5006630A6006D30A7007D30A800D3
:100034000730A9007F30AA006F30AB007730AC00E6
:100044007C30AD003930AE005E30AF007930B000A6
:100054007130B1000108223E8400000888000108C4
:0A006400103A031D36288101080040
:10006E0003208A110A128000840AA00A0319A10A29
:08007E00F003031D3728080000
:100086008316031788018901031305168801831255
:1000960088018501283083168100831281010A2098
:0400A6005228542860
:04400E00F22F000786
:00000001FF
