:020000001628C0
:0E0006008312031335088A00340882000800B4
:1000140003208A110A128000840AB40A0319B50A5B
:08002400F003031D0A28080087
:10002C003F3083120313A000A1010630A200A301EC
:10003C005B30A400A5014F30A600A7016630A800D4
:10004C00A9016D30AA00AB017C30AC00AD010730CA
:10005C00AE00AF017F30B000B1016F30B200B30120
:10006C00831687018312B601B70180303706F00082
:10007C0080307002031D44280A30360203185E28B3
:10008C003608F0003708F100F00DF10D7010700813
:10009C00203E8400000887004E30FC00EB30FD0051
:1000AC00FD0B5628FC0B5628B60A0319B70A3B2839
:0400BC0038285F2859
:04400E00F22F000786
:00000001FF
