:020000009D2839
:0E0006008312031321088A00200882000800DC
:0C001400831203139501171297120800C5
:1000200083120313FB01FA01F9018030F800F10C8F
:10003000F00C031C24287408F90775080318750FC1
:10004000FA070318FB0A0310F01F2C287408FA079C
:1000500075080318750FFB07FB0CFA0CF90CF80C6C
:10006000031C17287B08F3007A08F2007908F100D6
:060070007808F000080012
:100076008316031788018901FF3003138500880161
:1000860087018312850188018701121492147C303E
:08009600831692000A20080005
:10009E00831603131208013EF000F1010318F10A52
:1000AE0083122408F400F50110200630F2007008C7
:1000BE00F4007108F500720803196A28F50CF40CA7
:1000CE00F513FF3E63280430F1007408F000710848
:1000DE0003197528F00D7010FF3E6F283030700533
:1000EE00F3007408F0007508F100F10CF00CF11338
:1000FE00F10CF00CF113700895000F309705730892
:04010E00970408004A
:1001120003208A110A128000840AA00A0319A10A84
:08012200F003031D8928080009
:10012A00831603130711831212150C309704080063
:10013A003B208030A200A30195200518A628043090
:10014A00A2078518AA280430A20223082206031946
:10015A00B5282208A4004F202208A30022088800FC
:10016A000330FB000830FC007730FD00FD0BBB2894
:0C017A00FC0BBB28FB0BBB28A228C228F2
:04400E00F22F000786
:00000001FF
