:0200000037289F
:10000800FF00030E8301A2000A08A3008A01023040
:10001800FB000430FC00BA30FD00FD0B1128FC0B7E
:100028001128FB0B112800000130870602308706D3
:100038008B1023088A00220E8300FF0E7F0E090012
:0E0048008312031321088A002008820008009A
:1000560024208A110A128000840AA00A0319A10A20
:08006600F003031D2B28080024
:10006E0083160317880189018B170B16031387015B
:10007E0083128701013083168600831286010714CE
:06008E00871048284928F4
:04400E00F22F000786
:00000001FF
