:020000001628C0
:0E0006008312031321088A00200882000800DC
:1000140003208A110A128000840AA00A0319A10A83
:08002400F003031D0A28080087
:10002C008316031788018901031388010F3083128B
:10003C008800083088000230FB000430FC00BA3025
:10004C00FD00FD0B2728FC0B2728FB0B27280000A5
:10005C000C3088000230FB000430FC00BA30FD008C
:10006C00FD0B3628FC0B3628FB0B36280000043021
:10007C0088000230FB000430FC00BA30FD00FD0BA0
:10008C004528FC0B4528FB0B452800000630880052
:10009C000230FB000430FC00BA30FD00FD0B54288C
:1000AC00FC0B5428FB0B5428000002308800023053
:1000BC00FB000430FC00BA30FD00FD0B6328FC0B88
:1000CC006328FB0B63280000033088000230FB0020
:1000DC000430FC00BA30FD00FD0B7228FC0B7228BA
:1000EC00FB0B72280000013088000230FB0004304A
:1000FC00FC00BA30FD00FD0B8128FC0B8128FB0BAA
:10010C0081280000093088000230FB000430FC001C
:10011C00BA30FD00FD0B9028FC0B9028FB0B9028AF
:06012C0000001F289828C6
:04400E00F22F000786
:00000001FF
