:0200000076295F
:0E000600213083120313FD00FD0B07280800B4
:06001400000000000800DE
:10001A000F3083120313FC004730FD00FD0B132839
:0A002A00FC0B132800000000080082
:1000340083120313B71B2028871321288717371B24
:100044002528071326280717B71A2A2887122B28CA
:100054008716371A2F280712302807162F18342826
:1000640007153528071187150A208711B7193C2869
:1000740087133D2887173719412807134228071784
:10008400B718462887124728871637184B280712AF
:100094004C2807162F1850280715512807118715C3
:1000A4000A2087112F1C58280D20592803200800E6
:1000B40083120313FB01FA01F9018030F800F10CFB
:1000C400F00C031C6E287408F90775080318750FE3
:1000D400FA070318FB0A0310F01F76287408FA07BE
:1000E40075080318750FFB07FB0CFA0CF90CF80CD8
:1000F400031C61287B08F3007A08F2007908F100F8
:060104007808F00008007D
:0E010A008312031331088A00300882000800B7
:10011800831203132F103608B7001A202F14080073
:10012800831603131208013EF000F1010318F10AC7
:1001380083123208F400F5015A200630F2007008E4
:10014800F4007108F50072080319AF28F50CF40CD7
:10015800F513FF3EA8280430F1007408F000710878
:100168000319BA28F00D7010FF3EB428303070051E
:10017800F3007408F0007508F100F10CF00CF113AD
:10018800F10CF00CF11370089B000F309D057308FB
:040198009D040800BA
:10019C00E028803083120313B200F328C030B20081
:1001AC00F3289430B200F328D430B200F328803016
:1001BC00B200F328831203133208013A0319CF2833
:1001CC003208023A0319D4283208033A0319D72803
:1001DC003208043A0319DA28DD283303F000320818
:1001EC00F0077008B2007008B7001A202F10B50184
:1001FC00350834078400000803190C293508340726
:10020C0084000008B6008C20B50AFE282F140800C4
:10021C00831603138711071107128712071387130D
:10022C0083128711071187130713871207120D20EA
:10023C000D200D208716071687150A2087110D2013
:10024C0087150A2087110D2087150A2087110D208C
:10025C00071287150A2087110D2087150A20871190
:10026C008712871787150A2087110D208713071609
:10027C0087150A208711071287150A2087110D2070
:10028C0087150A208711071687150A2087110D205C
:10029C00071287150A208711871707178716071665
:0C02AC0087150A2087110D202F14080070
:0C02B800831203139B011D129D1208000D
:1002C40085208A110A128000840AB00A0319B10A2F
:0802D400F003031D622908007C
:1002DC00831603138710831212150C309D0408002B
:1002EC00323083120313A0003530A1002530A20058
:1002FC002030A3004430A4007530A5007430A60053
:10030C007930A7002030A8004330A9007930AA002A
:10031C006330AB006C30AC006530AD00AE018316C1
:10032C0087018312121492147C30831692005C2184
:10033C006E210E210130B7001A200C30B7001A20A4
:10034C000130B2000130B3002030B400CE203F3079
:10035C00B20094200230FB000430FC00BA30FD00E7
:10036C00FD0BB629FC0BB629FB0BB6290000A62900
:02037C00BE2998
:04400E00F22F000786
:00000001FF
