:020000000329D2
:0E000600213083120313FD00FD0B07280800B4
:100014000F3083120313FC004730FD00FD0B102842
:0A002400FC0B10280000000008008B
:06002E00000000000800C4
:1000340083120313BA1B20288713212887173A1B1E
:100044002528071326280717BA1A2A2887122B28C7
:1000540087163A1A2F280712302807163218342820
:10006400071535280711871517208711BA193C2859
:1000740087133D2887173A19412807134228071781
:10008400BA1846288712472887163A184B280712A9
:100094004C280716321850280715512807118715C0
:1000A40017208711321C58280A20592803200800D9
:0E00B4008312031334088A0033088200080008
:1000C2008312031332103908BA001A2032140800BE
:1000D2008316031387110711071287120713871359
:1000E20083128711071187130713871207120A2039
:1000F2000A200A20871607168715172087110A205B
:100102008715172087110A208715172087110A20C3
:1001120007128715172087110A20871517208711C4
:10012200871287178715172087110A20871307164A
:1001320087151720871107128715172087110A20A4
:1001420087151720871107168715172087110A2090
:1001520007128715172087118717071787160716A3
:0C0162008715172087110A2032140800AE
:10016E00C928803083120313B500DC28C030B500D7
:10017E00DC289430B500DC28D430B500DC28803083
:10018E00B500DC28831203133508013A0319B82889
:10019E003508023A0319BD283508033A0319C02859
:1001AE003508043A0319C328C6283603F00035086B
:1001BE00F0077008B5007008BA001A203210B801A6
:1001CE0038083707840000080319F5283808370760
:1001DE0084000008B9006120B80AE728321408002C
:1001EE005A208A110A128000840AB30A0319B40A2B
:0801FE00F003031DF7280800BF
:10020600423083120313A0007930A1006530A200AA
:10021600A3014D30A4006530A5007230A6006830F9
:10022600A7006130A8006230A9006130AA00203022
:10023600AB004430AC00FC30AD006E30AE0079301F
:10024600AF006130B000B10169200C30BA001A204D
:100256000130BA001A200130B5000130B600243052
:10026600B700B7208230FC00DD30FD00FD0B3929D8
:10027600FC0B3929000000000230B5000130B60041
:080286002030B700B720462923
:04400E00F22F000786
:00000001FF
