:020000001628C0
:0E0006008312031322088A00210882000800DA
:1000140003208A110A128000840AA10A0319A20A81
:08002400F003031D0A28080087
:10002C000730831203139F0083169F0185018601FD
:10003C008312850186010130A3000130A000083035
:10004C0020020318372823088600A30D231027301D
:10005C00FC00F530FD00FD0B3128FC0B3128A00A0B
:10006C0025280130A0000830200203184B28230853
:10007C008600A30CA3132730FC00F530FD00FD0B0C
:0E008C004528FC0B4528A00A392823284C28BB
:02400E00792116
:00000001FF
