:020000001628C0
:0E0006008312031325088A00240882000800D4
:1000140003208A110A128000840AA40A0319A50A7B
:08002400F003031D0A28080087
:10002C0083120313A001A1010130A200A3018316C6
:10003C00860103178901880130308312031386006F
:10004C001A30FC00F830FD00FD0B2A28FC0B2A2886
:10005C000000C0300602031C3F2800302106031D9F
:10006C00392801302006031D3F280130A200003042
:10007C00A300C030060203184C2800302306031DD1
:10008C0049280130220603194C285D280608F00087
:10009C00F00CF013700886001A30FC00F830FD00EC
:1000AC00FD0B5628FC0B56280000A001A1010608E8
:1000BC00033C031C6D2800302306031D6728013008
:1000CC002206031D6D280130A0000030A100060897
:1000DC00003C03187A2800302106031D77280130D4
:1000EC00200603197A288B280608F000F00D7010F2
:1000FC00700886001A30FC00F830FD00FD0B8428D7
:0E010C00FC0B84280000A201A3012F288C28E0
:04400E00F22F000786
:00000001FF
