:020000001628C0
:0E0006008312031335088A00340882000800B4
:1000140003208A110A128000840AB40A0319B50A5B
:08002400F003031D0A28080087
:10002C003F3083120313A000A1010630A200A301EC
:10003C005B30A400A5014F30A600A7016630A800D4
:10004C00A9016D30AA00AB017C30AC00AD010730CA
:10005C00AE00AF017F30B000B1016F30B200B30120
:10006C0083160317890188010130031385000130C1
:10007C00860087018801831287018801F301F4014E
:10008C00F501F6017508F0007608F100F00DF10DA0
:10009C0070107008203E8400000887007308F00080
:1000AC007408F100F00DF10D70107008203E840002
:1000BC0000088800051C6F28F30A0319F40A823023
:1000CC00FC00DD30FD00FD0B6928FC0B69280000ED
:1000DC00000000307406031D75280A307306031DDA
:1000EC007C28F301F401F50A0319F60A061C8C2886
:1000FC000130F302031CF4038230FC00DD30FD0000
:10010C00FD0B8628FC0B862800000000FF307406CF
:10011C00031D9228FF307306031D9C280930F30041
:10012C000030F4000930F5000030F60048289D2816
:04400E00F22F000786
:00000001FF
