:02000000D12805
:1000060083120313FB01FA01F9018030F800F10CA9
:10001600F00C031C17287408F90775080318750FE8
:10002600FA070318FB0A0310F01F1F287408FA07C3
:1000360075080318750FFB07FB0CFA0CF90CF80C86
:10004600031C0A287B08F3007A08F2007908F100FD
:060056007808F00008002C
:0E005C008312031323088A0022088200080082
:10006A002E208A110A128000840AA20A0319A30AFE
:08007A00F003031D3528080006
:10008200831603131208013EF000F1010318F10A6E
:1000920083122408F400F50103200630F2007008F0
:1000A200F4007108F500720803195C28F50CF40CD1
:1000B200F513FF3E55280430F1007408F000710872
:1000C20003196728F00D7010FF3E6128303070056B
:1000D200F3007408F0007508F100F10CF00CF11354
:1000E200F10CF00CF113700895000F3097057308AE
:0400F2009704080067
:0C00F600831203139B011D129D120800D1
:0C010200831203139501171297120800D6
:10010E00831603138710831212150C309D040800FA
:10011E00831603130711831212150C30970408006F
:10012E00831603131208013EF000F1010318F10AC1
:10013E0083122408F400F50103200630F200700843
:10014E00F4007108F50072080319B228F50CF40CCE
:10015E00F513FF3EAB280430F1007408F00071086F
:10016E000319BD28F00D7010FF3EB7283030700512
:10017E00F3007408F0007508F100F10CF00CF113A7
:10018E00F10CF00CF11370089B000F309D057308F5
:04019E009D040800B4
:1001A200803083120313A0008030A100831603174E
:1001B20089018801FF30860003138701831212141C
:1001C2009214F930831692008120121492147C301A
:1001D200831692007B208F2087202008A4004120D4
:1001E2002108A400972006180A290330FB000830D2
:1001F200FC007730FD00FD0BFC28FC0BFC28FB0B00
:10020200FC2808302007F0007008A0007008A40045
:100212004120861820290330FB000830FC0077308B
:10022200FD00FD0B1229FC0B1229FB0B12290830D1
:100232002002F0007008A0007008A40041200619F6
:1002420036290330FB000830FC007730FD00FD0B3F
:100252002829FC0B2829FB0B282908302107F0004C
:100262007008A1007008A400412086194C290330AF
:10027200FB000830FC007730FD00FD0B3E29FC0B33
:100282003E29FB0B3E2908302102F0007008A10034
:100292007008A40041201A30FC00F830FD00FD0B6C
:0C02A2005029FC0B50290000F4285629BC
:04400E00F22F000786
:00000001FF
