:02000000B7281F
:0E0006008312031322088A00210882000800DA
:100014000E3083120313FD00FD0B0E2800000800B0
:1000240083120313FB01FA01F9018030F800F10C8B
:10003400F00C031C26287408F90775080318750FBB
:10004400FA070318FB0A0310F01F2E287408FA0796
:1000540075080318750FFB07FB0CFA0CF90CF80C68
:10006400031C19287B08F3007A08F2007908F100D0
:060074007808F00008000E
:10007A00831603130711831212150C309704080014
:10008A00C330831203139F05C0309F002708F00076
:10009A00F00D7010F00D701070089F042009F00028
:1000AA00700883169F059F1783121F140A209F1436
:1000BA009F1C612800005D281F101E08F100F00136
:0C00CA0083161E08F0040030F10408004A
:0C00D60083120313950117129712080003
:1000E20003208A110A128000840AA10A0319A20AB3
:0800F200F003031D7128080052
:1000FA00831603131208013EF000F1010318F10AF6
:10010A0083122708F400F50112200630F200700865
:10011A00F4007108F500720803199828F50CF40C1C
:10012A00F513FF3E91280430F1007408F0007108BD
:10013A000319A328F00D7010FF3E9D28303070057A
:10014A00F3007408F0007508F100F10CF00CF113DB
:10015A00F10CF00CF113700895000F309705730835
:04016A0097040800EE
:10016E0010218B010430831603138500870183123F
:10017E008701121492147C30831692006B20823009
:10018E0083169F000630FB001330FC00AD30FD00DF
:10019E00FD0BCF28FC0BCF28FB0BCF280000000057
:1001AE003D200230A700452070088312A50071087B
:1001BE00A6008230FC00DD30FD00FD0BE428FC0BB8
:1001CE00E428000000002508F0002608F100F10CDC
:1001DE00F00CF113F10CF00CF1137008A300710880
:1001EE00A4007008A7007D200230FB000430FC0044
:1001FE00BA30FD00FD0B0129FC0B0129FB0B012977
:06020E000000D8280929B8
:1002200020308400013083120313F0000F30A1004E
:080230000130A200712008005A
:02021E0030347A
:04400E00F22F000786
:00000001FF
