:02000000CD2809
:0E0006008312031322088A00210882000800DA
:100014000E3083120313FD00FD0B0E2800000800B0
:1000240083120313FB01FA01F9018030F800F10C8B
:10003400F00C031C26287408F90775080318750FBB
:10004400FA070318FB0A0310F01F2E287408FA0796
:1000540075080318750FFB07FB0CFA0CF90CF80C68
:10006400031C19287B08F3007A08F2007908F100D0
:060074007808F00008000E
:0C007A008312031395011712971208005F
:10008600C330831203139F05C0309F002808F00079
:10009600F00D7010F00D701070089F042009F0002C
:1000A600700883169F059F1783121F140A209F143A
:1000B6009F1C5F2800005B281F101E08F100F0013E
:0C00C60083161E08F0040030F10408004E
:1000D200831603130711831212150C3097040800BC
:1000E200831603131208013EF000F1010318F10A0E
:1000F20083122808F400F50112200630F20070087D
:10010200F4007108F500720803198C28F50CF40C40
:10011200F513FF3E85280430F1007408F0007108E1
:1001220003199728F00D7010FF3E912830307005AA
:10013200F3007408F0007508F100F10CF00CF113F3
:10014200F10CF00CF113700895000F30970573084D
:040152009704080006
:1001560003208A110A128000840AA10A0319A20A3E
:08016600F003031DAB280800A3
:10016E00FF3083120313A300FF30A400FF30A5005D
:10017E00FF30C3309F05C0309F002009F00070088B
:0C018E0083169F059F1783121F140800A2
:10019A00162101308316031788008901831203137D
:1001AA00870183168701B720121492147C308316B4
:1001BA0092003D2069200230FB000430FC00BA3076
:1001CA00FD00FD0BE628FC0BE628FB0BE6280000E9
:1001DA0007148710A801432070088312A60071082B
:1001EA00A7007008F2007108F300F30CF20CF31385
:1001FA00F30CF20CF3137208A80071208230FC0091
:10020A00DD30FD00FD0B0729FC0B0729000000006B
:04021A00ED280E2994
:10022C0020308400013083120313F0001430A1003D
:08023C000130A200AB20080014
:02022800303470
:04400E00F22F000786
:00000001FF
