:02000000432893
:0E0006008312031321088A00200882000800DC
:100014003F3083120313A2000630A3005B30A40018
:100024004F30A5006630A6006D30A7007D30A800D3
:100034000730A9007F30AA006F30AB007730AC00E6
:100044007C30AD003930AE005E30AF007930B000A6
:100054007130B1000108223E8400000886000108C6
:0A006400103A031D36288101080040
:10006E0003208A110A128000840AA00A0319A10A29
:08007E00F003031D3728080000
:1000860083120313850186018316051686017030D7
:100096008F00811601168115011481140115831232
:0800A60081010A2054285628AC
:04400E00F22F000786
:00000001FF
